:100000000C9424090C9451090C9451090C94510935
:100010000C9451090C9451090C9451090C945109F8
:100020000C9451090C9451090C9451090C945109E8
:100030000C94E63E0C9451090C9451090C9451090E
:100040000C9451090C9469240C9451090C94510995
:100050000C9451090C9451090C9451090C945109B8
:100060000C9451090C94BD3E0C94933E0C94510990
:100070000C9451090C9451090C9451090C94510998
:100080000C9451090C9451090C9451090C94510988
:100090000C9451090C9451090C9451090C94510978
:1000A0000C9451090C9451090C9451090C94510968
:1000B0000C9451090C9451090C9451090C94510958
:1000C0000C9451090C9451090C9451090C94510948
:1000D0000C9451090C9451090C9451090C94510938
:1000E0000C9451090C94D8220C949D180C94F0286F
:1000F0000C94183B0C94E7320C94D82F0C94BD3A16
:100100000C94FD310C94873E0C94F72A0C947720C4
:100110000C94B6330C94C9310C94D3360C94EC2D5A
:100120000C940C310C942F340C94582D0C94AC324C
:100130000C9433150C94201D0C9409150C94553215
:100140000C94B9180C94D5220C94742B0C94D723CE
:100150000C94371F0C9418330C943B320C94E91A0E
:100160000C94CB130C94A63B0C940B290C94181FE5
:100170000C94021D0C94F91E0C94731A0C94B63155
:100180000C94651E0C94B12B0C9442360C9468268A
:100190000C94C83A0C94FD330C94A4220C94793B33
:1001A0000C945D230C94A32C0C9436270C9401150D
:1001B0000C942C260C9463150C94E7280C94713144
:1001C0000C944E170C94BD2F0C945B340C94581364
:1001D0000C9458220C9427190C9461360C945F28C7
:1001E0000C94561F0C944A350C940D240C94A82D95
:1001F0000C94DC2C0C9481180C943A180C94C527A0
:100200000C942C350C94A83B0C94D5200C94792795
:100210000C94FC330C94AF300C94A7300C94AE26A5
:100220000C94A4340C9475130C946E310C943B2CE8
:100230000C949C280C94C9210C949C3A0C9403288F
:100240000C94BB280C94CD1A0C943B260C94931F51
:100250000C94F7360C9462310C94F93A0C94F53501
:100260000C94B81C0C94F2360C94C63B0C94F3130B
:100270000C946A370C9452200C945A1E0C947F14E0
:100280000C94B6150C94701E0C94CE1F0C948733EE
:100290000C944D290C941A340C94281E0C94A71E0F
:1002A0000C9456260C94FA340C945E170400000447
:1002B0000404040000000004040000000004000026
:1002C0000000000000040000000000040002000024
:1002D00004000400000407040400000404040000F7
:1002E00002020000000204070004070704000404DF
:1002F00000000400020204040404040000040004DA
:1003000004040404040400040002030400040400C0
:1003100004000400000400040000000000000000CD
:100320000102010216035B34020001000000623189
:100330000300010000006E31040001000000713173
:10034000050001000000B631060100010606731A1F
:10035000070001000000E91A080100011503CD1A89
:10036000090001000000FC330A02010101061A34F1
:100370000B0301031203FD330C02010210032F349F
:100380000D0200021603F2360E020002ED05F736EA
:100390000F03000312036A37100200021003021D4C
:1003A000110500050B03B81C12020002ED0587338E
:1003B000130100011503FD31140200021003CB13D9
:1003C00015020002ED055813160400040703F31389
:1003D0001705000502037513180100011503C93143
:1003E00019080008FA0255321A030003F7023B32DB
:1003F0001B020002ED0536271C02000210037927BC
:100400001D040004E505C5271E010001150356263D
:100410001F080008EF02631520020002100368267F
:1004200021040003EF05091522030002F2054E170F
:1004300023030002F2055E1724040004E905B61543
:10044000250100011503011526030003EC023315F5
:1004500027050003E902D82F28040003E602AF3085
:1004600029030002F205BD2F2A040004E9050C311E
:100470002B0100011503A7302C030003E302E7283A
:100480002D030003F4055D232E060006DD02D723AD
:100490002F020002ED05A32C30050005D8025F28CD
:1004A00031040004FB05BB2832020002ED059C2844
:1004B00033040003D5023B2C34050005D002DC2CAC
:1004C0003501000115034A3536040003D605F5351C
:1004D00037050005CB02742B38040004E905FA3413
:1004E00039030003EC022C353A030002F2054236D0
:1004F0003B030002F205D3363C060006C502613616
:100500003D030002F20581183E030002F2059D182A
:100510003F080008BD02B91840060006C5022719A9
:1005200041050005B8023A1842060006B2020B293E
:1005300043030003F7024D29440100011503183B52
:10054000450200021003793B46020002ED05F93A2C
:1005500047030002F205D52048040004E505931F77
:1005600049030003F702C83A4A0100011503CE1FF0
:100570004B0200021003A4224C020002ED05371FBB
:100580004D010001150377204E020002100358228E
:100590004F020002ED05181F500100011503C9218B
:1005A000510200021003561F520100011503701E74
:1005B00053060006AC02A71E54030003F7025220A4
:1005C00055020002ED05F91E560001000000873EAD
:1005D00057000500000004020704000002000204A6
:1005E00004000400070400000404000000040404E4
:1005F00004070407040002040404000404000404C3
:1006000001070400040200000000000000060002D0
:10061000026E4003D6056D1D06D9056C0F03DF057C
:100620006B4003E2056A1404E505691704E90568EF
:100630000A02ED05674002F205664003EF056540DA
:1006400002F205644002F205631003F4056211042E
:10065000F705611104FB05600D02FF055F0B010644
:10066000065E400101065D120402065C0B010606EF
:100670005B100207065A150309060040020C0659D2
:100680000E020E0658090110065706000000282920
:100690002A2B2C2D2E2F5051525354555657200093
:1006A0002300260029002C002F003200000100004A
:1006B0000301060109010F47004400450080013590
:1006C00048004400450020010D8800800081008022
:1006D000000E8A008000810020000F8C00800081C5
:1006E0000008000CB300B000B10080033EB400B0BD
:1006F00000B1002003239800900091008000249A0C
:1007000000900091002000259C00900091000800BE
:100710003BA800A000A10080003CAA00A000A1000E
:1007200020003DAC00A000A10008005B28012001D2
:10073000210180005C2A012001210120005D2C01A3
:1007400020012101080078DA9D59E96EDB48127E0C
:10075000951E02C1EE2C1C83A2444AF2223F7C2546
:10076000934D9C78E278B3C06241D0644B6A98D7CD
:10077000B0491F33C8BB4F55575FA4E40CB001020A
:10078000B3BBABFAA8E3AB437F0459DB0627C187B1
:1007900052B42DEF82A3E06E1065913EF04E8AA612
:1007A00096B0B4CDF313F6F777E7E73FB3F8787177
:1007B0001CB23B510FBD2825CE7EBA65677AF8334F
:1007C0008B8EA3E4380A6749388B62D82A6FAA2A2D
:1007D000AB0BD8E48F202BCB26CF7A9E36A2902C61
:1007E0006F86BA7FF32A0F4E567862DFC35169963F
:1007F000DF335885696F7DB1F4088AC210B48D5417
:100800007F44FDE6D5C0DAA12CD3A12586B563F8D7
:100810006DE0DDB3DD132E708FD41D977DDA8BFC78
:100820005ED2A8EFB25A56A24FCDA94CD4F07E7D2D
:100830003E5C302F79D6A57237F445F3580727115F
:100840003EADDE882DDCE8A99C2F6273846C454A9E
:100850009FC1C9327454755636DB54D4F6F6EADAC1
:10086000C1C9DCEDA4AF6C2868983A39C46E3B3539
:10087000C9BBF1662319C44B4B5C88ADE8B3326D3C
:10088000867EC2F0909503C771C137D950F6A99DF5
:10089000A8B2A7B418BAAC070B50F79CB9FD38E85A
:1008A000B36FDAD15EF9E8F028B1C4BB62B158AEDB
:1008B0004243DCC9549FCDCD47B1B05FB1FD4AEC96
:1008C000D7D27EF1327BB64A0B4E92B93D444439C1
:1008D00033425FB8E9B2C867C92C3267039555CD7A
:1008E0002A9E52A58FA2DF8182FABB7D7A86D374BD
:1008F0000FE45D385E21A3E2F1A0EED796A86A87E7
:1009000075148787AEB17482AA79D38A275E4E5454
:1009100054647D964AF13B68653780DFF529AAC6A5
:10092000335DC9614AD49E6062F7B6F6B13AA0F66B
:10093000FC19CCD9EDA195BE1BA66600337B76B021
:10094000703786E74E37460FEEC5034F7762BB53CD
:100950002F9CAF7C7AF0836DC9F7E5C5EC5ADA3F7E
:10096000B79C64331F711ADF3BC4AC97D24A6EDF69
:10097000BCFA0780CD7CCC8BAA0531A4B9B4663211
:1009800077F62CFBE53AB2EAC9AD85CABCBCB7DF45
:10099000A2B09FCF759E8E8D91E55591EED967E8F7
:1009A0009DC0115AEDD561A8AD8915A2339F0439B8
:1009B0008AD8510DA5E4DEA6917B58BFE35DD50032
:1009C00012B40725EA2F3BA126EED97D950F596772
:1009D0006DA37B4AF76084F576122DAF1715270BB0
:1009E00073A0D577280F27567874C1EF06B0E706B5
:1009F00082CADA8C6097ADB265D2CFCC92753C03D7
:100A000044EF0ADEE17900EF1DC14D64081E3BD1C1
:100A1000F33D0A345A229C1D05BCE2DD96D7F973DA
:100A20008AB804978029C2A874D7547C0FFD6556F4
:100A3000B5BE03E8B1C5FE717480AB3B5CA4E75A58
:100A4000197762BBE51D3E4236040E51EC0E57B1DC
:100A500007EE94F5DC0A2802F0D8088806E0D229CF
:100A6000C990E55D4E1673146CC19BD53D41C87AA3
:100A7000A468C01D6838B4A805F0C3A340436B2A1E
:100A8000E1BC142CD0460EFC263927D1840C5560CD
:100A9000C89C3A121022C252D51462F39C82AEED69
:100AA0005E1D572EC57400841BE0AAF6B235B191C5
:100AB0000EC7F43897965C834648848A7D903E1230
:100AC000C250E118C808FFA27AB9245B5F448E4B7C
:100AD000369BFE31EBB8CF0EFE697DB2C8CCE7A1E4
:100AE0009D929876D2B6347DFE029F5FF0BA87C79A
:100AF000B366B381039553DBC80BEB264AC0DAF02B
:100B00008259F53B3870D794851AFCD85018EFBA43
:100B10006664382BB05A130394AEACC9C4FECAD075
:100B200016CE9C2807DA0DDE5B62300CB2BB496240
:100B300032326A10C97A42A7EC74700099AC2CC1A9
:100B40003477F93F1DA9728EA4238B1B41FEB50596
:100B5000C61DCFEFBD8C673E337798243CF6066DFB
:100B60000358353DDF0B8589D960920B4CA4B19AAF
:100B70004DE8948627AEBB8AA6441391AD424B3014
:100B8000CA0B26872D5763B2E936CBA5599F640E51
:100B9000D37DE209DDDE46D616F642EF0B993062D0
:100BA0000B445AB121F92FED8B0F059B17F6F0D4AA
:100BB0003CD2320D20C801F6159E9213D2D1C00F3F
:100BC00025AAF68CC6CF7066B16199243896DC5A96
:100BD0001678B725C688CA5C46C73B0A22C6D177B5
:100BE0000A34E0AF00988697ABDC0AB49AE84FC5A8
:100BF0004FE83C3D0F1840F748E3BF619265C3BD25
:100C0000E77B44EA052A21B37B8EB233604A88A988
:100C1000E64FFA0A90335810131D8595191119796A
:100C2000FC45A6075201DBF0922EAC7F36CEBF1CEE
:100C30009E2C6744E72192B73A5F98D511B0E394B0
:100C400006760829DC836560491CCB2154AF846C8F
:100C50000C96578D1487B2B1BD4D137D8F97DF3140
:100C6000072BA044EF47F1325E8FA90E87CB788522
:100C7000542AA54B3126030A0B4C90ADE3CDD68EFA
:100C800040650268BD1402988D085E7C000ED85243
:100C900027642351AB8865032A8503D088E646196B
:100CA000A2CB1EF000308995A3EBFD448FB74DA772
:100CB000B30CF25E35B646C29F5A012AF1739AB55B
:100CC000DD69F20A9F08508B82D3213FF67C60F1E8
:100CD000DD248FD81438BD384FAF4EFF832921E66D
:100CE000B667B737E9F5FB4F378858C149707D368D
:100CF0003FBA3E8BE0FF2CF016FB47B578111E5D26
:100D00005FE0C2F9C7CFE71FD2B75F2E7F457709F3
:100D1000D5BFA3E0EAFC16A8B2BEE2DB2C8A931092
:100D200008AFBF5DD1691116495F2ECF2FDFFFFBE2
:100D300032FDF6FED3C5E76FA8B608276F2EBFC0F9
:100D400024DD8277222BF1AC4B38EB12CF82D5F722
:100D5000A71FD3B3D3DB0BDC868EBAF97AFAF5265C
:100D6000BDB9BDBAF915566E2E7125F98E99E00000
:100D7000B9A9AA9E540B44673CF8A9DE10020DD80D
:100D8000348EAF4FC3E0E4BFE1D1EA7F70CD33FCD6
:100D90005ED1F7397E0308A8C1050E208754834B26
:100DA0001CCC231ABCC5C142F3BF5303BDC12F38AD
:100DB00088F506FFC2C152F37C50C7689E8F6A80D7
:100DC0003CDF47D000A583EADECCE6F339DCF82827
:100DD000C8641C2E96854A8BFA92C7E12CBA830709
:100DE0006B2EFD3CA53F7C1EC6248126D841099070
:100DF0008A422B9D29E3D850E0A78EC1698936FE2F
:100E0000CC4C7A5C10609E6735AB9B9E81B13304FD
:100E10000C061847C0C694CDB2C79D806FB23DC9BD
:100E20005AF01E388910D9F00E92ABD8D6CDD8A67C
:100E3000E91898C13FCD58485C2DD4BC9A92E46221
:100E4000C0FAB71E0302D47E5BB810A477598FD4C2
:100E500099BE2655BA94F16B6289A468F25497D072
:100E6000AC8A1D6A6BB829AF9929062D3F18DD3968
:100E7000B5C9589B756072941CAA94DF2C741C42EF
:100E800098EC55B3EC6D06EF2D58DF308514D8FC87
:100E9000500E4E9DB2F7146099E926B9E616C53991
:100EA000CAAA0C95EECFA96AC3CD01195E25AB384D
:100EB00004492A3ACD62D53C70731B867D09F468DB
:100EC000B76CBB18B66F4188BFB7AEF3587BFEDC7A
:100ED000BB00089091D961196866B1DD6070235A32
:100EE0008EE6756E93EF44AB1917B331814ADBDDA3
:100EF0009B2435320CC528BBF176C102E72A7B4220
:100F00003B5D19815273E10A4A8B6CCB19549D10D9
:100F10008B8CC260CB2B21D19A24A4B2C55062D550
:100F20000BCC18BA99464565F8FC81A326306ABFF8
:100F3000CCB0CBBA4219BBA6C6DAFA0AC5AFB21911
:100F4000065FDDA66C1E291DFA04569E317A0EBA84
:100F5000974295C56401EC9E16B080F71744DD52A8
:100F6000D240FD33B554E34DDDF442A1A7B5FEB642
:100F70006BB620CC0AAE9EE1DB361075E196206C94
:100F80008E8E8BBDCA2F5C3F0A8D153D0B8E415155
:100F9000831AD092B1BCBBB1047BD2618FA22C2149
:100FA00018E5B0DFA80D45E1D5715A09FD8003238E
:100FB000D80D7821E9505D002944355466CE3807B4
:100FC000DECAB49A54D10B9B29BF5518E437806F01
:100FD000B423F74DC336997A1DBD0C6BFCAFBE49E7
:100FE000A1C8805035D7A825F655C90339210E4B25
:100FF000AE7A16B7B51C5A8CC59C9C5A2129F6B2FC
:10100000BF657DBE2B9A2D49F127AA0855371D2AA9
:10101000A6A1BE878D1111A849EBCD4BB70096490B
:101020003E02902101E9D08321CA435D2FB57E5D48
:10103000B78A00ABA94BC0B807D820BB2B0D74D919
:10104000E753E5CF74F2413DF24907E1847D06F0B4
:1010500084007887F9C2063B48F2274A4BD40F0038
:101060001647F5CF0205B58524D6E1352004994C05
:101070000ECBB884091E80BF6AF57E3A3DFF401D45
:101080003CD3C352791A4AB3CC3A0C2798971E48DE
:1010900046508564F0D811D4084CEE84291844AB2E
:1010A000BDAE19862BC818E6B3551CABE8A7078957
:1010B0000A7F344862650F304892257CCFBFC34E0B
:1010C000A5C841D4C01FE02F24EFAE3F3ECC03554E
:1010D00048B400229C7E103185F5A8D054CE9F1EC6
:1010E000AA645E47DE0F1B2396CC2B9B995AA14C1A
:1010F000F5B5EAC4AB8AC525866BDBBD8370A6FB5C
:101100004B2A75546D289C337A56F938E04C6A2B7B
:1011100024E0561D48558DFFE8DA9A437FA4EEF48B
:10112000D7184D4CEF4F8243D856DEDA6B9D8D7643
:10113000865A1C7071FF0CBF33071BCF67AE1D951D
:101140001A417BB5B31A1BB92C5DCBC7A3B5BD1F24
:101150004AF68F91167B574E246C9ACF9054206F8D
:101160000A5E6C1D780F308D205F1EA1D7DED12264
:101170003175D490E7AA8785CF4354816BFA6DD43B
:10118000F542F90B3834A45D501EF9E58AC4185DA8
:10119000E77CD21F7A8D9586CF33EA19B8025A9729
:1011A000FDA628A0E2D3DFF26E50905F5017063202
:1011B0001F4089D4C424A90D5615420E4D4DDBE8BD
:1011C000B008D7872AD23D45FA5D87914667E3127A
:1011D000F02F2D401571001E2A595C2D295395CEF4
:1011E00070E550E93FF237B2CFD0557593928F1A20
:1011F00071028D309A80C858A3077D7BA0C8A0D506
:101200001CB94A70FF095803D2F563BFBA73A6969A
:1012100067B6D43CDC78F42C0F130AEA2733FABD06
:1012200066F051620620A67F0306107B088F67D107
:101230007108D61ABFDEDE25591826F328F8FE27D6
:10124000A21120C7FE0A000011241FBECFEFD1E279
:10125000DEBFCDBF00E00CBF14BE0FB6F894A8955A
:1012600080916000886180936000109260000FBEE2
:1012700012E0A0E0B2E0EAE8FFE700E00BBF02C046
:1012800007900D92AA32B107D9F723E0AAE2B2E0A3
:1012900001C01D92A939B207E1F70E949A250C946A
:1012A000C33F0C940000CF93DF93CDB7DEB76C97AC
:1012B0000FB6F894DEBF0FBECDBF0E9487256B012D
:1012C0007C019E01275F3F4F398B288B809126023E
:1012D000882309F4E9C60E948725C61AD70AE80AB6
:1012E000F90AF89480912602882351F08FEF8093B9
:1012F000260278940000F894809126028111F9CF9B
:1013000078940E948725A7019601260F371F481F52
:10131000591F2E8B3F8B488F598F81E08093260277
:1013200080914C02882309F442C010924C028FEF46
:101330008983AE014F5F5F4F7A010DE416E066E5E9
:1013400076E2C7010E94181B6C01892B81F1D6013E
:1013500056968C9182FFF3CF0E948725F894F60170
:1013600037892689422F4B7F468B78949F938F93A2
:101370007F936F931F923F9321701F922F938981C8
:101380001F928F931F930F930E94B7382DB73EB7CC
:10139000245F3F4F0FB6F8943EBF0FBE2DBF66E5EA
:1013A00076E2C7010E94181B6C01892B81F680919F
:1013B0004D02882329F110924D028FEF8983AE01EF
:1013C0004F5F5F4F7A0108E416E068E676E2C701F6
:1013D0000E94181BFC01892B99F0958D868D98131E
:1013E000F4CFF894858D968D891709F463C77894A6
:1013F00068E676E2C7010E94181BFC01892B69F799
:1014000080914E02882311F110924E028FEF898352
:10141000CE0101967C0109E316E06CE978E2C70190
:101420000E94181B009791F0DC0158962C912F3FD9
:10143000A1F7F894FC0126852111FFC578946CE989
:1014400078E2C7010E94181B009771F78091500243
:10145000882309F43FC0109250028FEF8983AE01B8
:101460004F5F5F4F7A0104E316E06CED7CE2C70149
:101470000E94181B009771F1DC011E962C911E979B
:1014800023FFF3CFF894FC012685277F26877894E5
:101490009C01265E3F4F3F932F9350968C918695EB
:1014A000869586951F928F9389811F928F931F93A4
:1014B0000F930E94B738EDB7FEB738960FB6F89481
:1014C000FEBF0FBEEDBF6CED7CE2C7010E94181B92
:1014D000009791F680915902882309F44AC010922E
:1014E00059028FEF89839E012F5F3F4F79010AE2F6
:1014F00016E06CE275E3C7010E94181BFC01892B02
:10150000C1F1848D80FFF5CFF894948125813681D7
:101510004781548965897689A789B08DD18CC28C21
:10152000B38C848D8E7F848F7894BF92CF92DF921C
:10153000BF93AF937F936F935F934F933F932F939B
:101540009F9389811F928F931F930F930E94B738A7
:101550004DB75EB7405F5F4F0FB6F8945EBF0FBEEA
:101560004DBF6CE275E3C7010E94181BFC01892B7B
:1015700041F680914F02882309F456C010924F0221
:101580008FEF8B87BE01655F7F4F1B013CE0932E81
:1015900047E0842E6DE479E2C1010E94181B5C01D2
:1015A000892B09F441C0D50159968C91599780FF38
:1015B000F1CFF894F5014480558066807780818D65
:1015C0008E7F818F789458968C91813009F49AC3DC
:1015D00008F478C3823009F435C38330D9F6CB845C
:1015E00019821A829E012F5F3F4F42E061E0F501B0
:1015F000848995890E94541609811A811027012730
:101600001027F02FF670EF2E20E030E0B301A2019A
:10161000C5010E94C5296DE479E2C1010E94181B31
:101620005C01892B09F0BFCF80915B02882301F117
:1016300010925B028FEF8B879E01255F3F4F190150
:1016400019E0B12E8E010F5F1F4F82EFC82EDD24EF
:10165000DA9406C0D7011E968C911E9780FD81C337
:1016600069EF7AE3C1010E94181B7C01892B91F775
:1016700080915C02882309F463C010925C028FEFB2
:101680008B87FE013B961F019E012F5F3F4F690133
:1016900068EC7AE3C1010E94181B7C01892B09F4D4
:1016A0004FC0D7011E968C9182FFF2CFF894F701BC
:1016B0004480558066807780B1881686118A789438
:1016C00080859185A285B385481A590A6A0A7B0AE2
:1016D00087010E5E1F4FD701BB2099F056968C9163
:1016E000F701E80FF11DBFEFB78B108E118E8D5FE4
:1016F000F701868B823308F0EFC0BA94D701B1109E
:10170000EDCF1F968C91882309F43DC2813009F4F6
:101710005FC4823009F47BC5F701868990E0C297E7
:101720000CF4B6CF6B85C70142960E947D2168EC10
:101730007AE3C1010E94181B7C01892B09F0B1CF0B
:10174000809145028823D9F0109245028FEF8F8750
:101750009E01215F3F4F790132E7932E44E7B42E7B
:1017600006C0D60152968C91529780FD71C367E3F3
:101770007FE1C7010E94181B6C01892B91F78091B2
:101780004602882309F1109246028FEF8F879E014F
:10179000215F3F4F790107E0402EAE014F5F5F4F61
:1017A0004A018FEA582E98EA692E06C0D8011E9683
:1017B0008C911E9780FDAEC368E17FE1C7010E9456
:1017C000181B8C01892B91F780914702882309F41B
:1017D00089C0109247028FEF8983FE0131967F0105
:1017E00069EF7EE1C7010E94181B6C01892B09F487
:1017F00079C0D6011E968C9180FFF2CF9980C601E8
:101800000E94A321F894F60196859E7F968778948E
:1018100083FFE6CFA388B12CB4E1AB0EB11CAC0CB6
:10182000BD1C0484F585E02D1D86850122E0AE01F6
:10183000435F5F4F61E080810E946F1BD6011C9661
:10184000ED91FC911D9781E08E870E5F1F4F22E086
:10185000AE01425F5F4F61E080810E946F1BF60125
:1018600083898C5F838B8601035B1F4FD8018C902B
:1018700082FE28C0F501428053805424452454241C
:10188000052C000C66087708411451046104F0E14E
:101890007F0608F062C40E94872581FC53C5F601CB
:1018A000E05BFF4F20813181428153812415350552
:1018B0004605570508F455C5882D8D7FD8018C93B2
:1018C000F601838990E0C1970CF48ACF692DC60197
:1018D0000F960E947D2184CF6B85C8010E947D21D7
:1018E000BA940CCFA89580917502882329F080E4E2
:1018F000809360001092750210913603112309F451
:101900006EC000912A0200FD12C0153008F467C0B5
:10191000D0907602BD2C8BEF8D0D8C3308F4EBC389
:10192000EEE7BE1609F4A4C5016000932A02412F18
:1019300050E06EE770E086E792E00E94943F0097E7
:1019400039F00E7F00932A028657924011E0180F5B
:1019500001FD0CC0902F926090932A0281ED95E0DA
:101960009F938F930E94B7380F900F90D12ECC2465
:10197000CA9420E0ED2CF12C19C0822F90E0402F6A
:1019800050E0481B590BB701680F791F6A587D4F0B
:101990008A589D4F0E94AA3F10922602202F8FB78F
:1019A000F89490913603191761F08FBF10913603A8
:1019B000012F0D1911F78FB7F89490913603191371
:1019C000F4CF009336038FBFF1E0CF1208C081ED52
:1019D00095E09F938F930E94B7380F900F900E94CD
:1019E00087256B017C012E893F89488D598D621BAB
:1019F000730B840B950B8090330290903402A0906F
:101A00003502B09036023FEF831A930AA30AB30A55
:101A10008092330290923402A0923502B092360244
:101A200040902F025090300260903102709032024C
:101A3000460E571E681E791E40922F0250923002A9
:101A400060923102709232026115710541E08407A3
:101A5000910508F02EC39B01AC010E94F13EDC0110
:101A6000CB0181509F4FAF4FBF4F892F9A2FAB2F84
:101A7000BB2740912B0250912C0260912D02709156
:101A80002E02840F951FA61FB71F84179507A60760
:101A9000B70718F48FEF9FEFDC0180932B02909330
:101AA0002C02A0932D02B0932E024091550250912A
:101AB000560260915702709158025C546B437B4F01
:101AC0002F2DC416D506E606270B27FDFFCBBF93A7
:101AD000AF939F938F937F926F925F924F92BF923B
:101AE000AF929F928F9285E796E09F938F930E948B
:101AF000B7386DB77EB7625F7F4F0FB6F8947EBF81
:101B00000FBE6DBF8091550290915602A091570271
:101B1000B0915802C816D906EA06FB0698F48091DF
:101B2000510290915202A0915302B0915402019639
:101B3000A11DB11D8093510290935202A0935302B4
:101B4000B0935402C0925502D0925602E0925702CE
:101B5000F092580210922B0210922C0210922D0239
:101B600010922E0210922F02109230021092310227
:101B70001092320210923302109234021092350207
:101B800010923602A3CB82E389831A820E948725B2
:101B90004B015C01960142E061E0F7018485958587
:101BA0000E9454160E948725DC01CB0188199909EF
:101BB000AA09BB0981329340A105B10508F02EC2E4
:101BC000998197FD67C284189508A608B708D701C0
:101BD00050968C918823C1F02FEF280F41E050E000
:101BE00002C0440F551F2A95E2F7052E000C660B24
:101BF000770B840E951EA61EB71E04C0B694A7943C
:101C0000979487948A95D2F7BFEF8B169104A1041D
:101C1000B10408F0B0C22A8130E0220F331F892FAF
:101C200090E0982F8827990F822B932BF701268914
:101C3000E20FF11D878A808F918F2D5FD701569615
:101C40002C936ACDCB8481E089831A821B821C820B
:101C50009E012F5F3F4F43E061E0848995890E9498
:101C6000541669817A818B819C810E94233FBB2716
:101C7000A92F982F872F9C01AD01442755272A8B28
:101C80003B8B4C8B5D8B89821A829E012F5F3F4F6D
:101C900042E061E0D50154968D919C9155970E9448
:101CA00054168A81982F9C7F8A898170E92EE82AB0
:101CB0000A891B892C893D89B301A201C5010E94B3
:101CC000C52968CCCB8419821A821B821C829E0192
:101CD0002F5F3F4F44E061E0F501848995890E94C0
:101CE000541669817A818B819C810E94233FF62F53
:101CF000F770EF2E8B019C01B301A201C5010E9478
:101D0000C52948CC2B852A8B99821A821B821C827A
:101D10009E012F5F3F4F44E061E0848995890E94D6
:101D2000541669817A818B819C810E94233F6B01CB
:101D30007C01BFE0B9831A829E012F5F3F4F42E0D2
:101D400061E0F501848995890E9454169701860106
:101D50003327CA88EA80B301A201C5010E94C529C0
:101D600019CCAB84F8012B2D11922A95E9F7C98281
:101D7000980149E061E01C968D919C911D970E940D
:101D80005416D70153968C9190E0FC017496EE0D99
:101D9000FF1D3B81232F207FE1F0203FD1F0D48233
:101DA000D382D282D182F701E80FF91FD48AF701DA
:101DB00083898B5F838B803308F013C2D7011E9613
:101DC0008C911E978E7F1E968C93C7010E9439229C
:101DD00047CC2D81422F407F09F0BBC15F81452F49
:101DE000407F11F0403FD9F648854039C1F649851A
:101DF0004F77942EB0E2B41790F2D701A80FB91F15
:101E00004A8154964C938C8181838E818283852F65
:101E100090E03F71AC01440F551F42955295507FA1
:101E20005427407F5427342B3383880F991F880F02
:101E3000991F80762F71822B8483D70153968C91C2
:101E400053978B5F53968C93803308F4D0C1CAC1EB
:101E5000AF8450968D919C915197C09758F1B9825B
:101E6000D6011C96ED91FC911D978601085E1F4FCF
:101E700020E3AE014F5F5F4F61E080810E946F1BE6
:101E800080E3F601878B80899189C097918B808B45
:101E90006A2DC60143960E947D21D60150968D91F0
:101EA0009C915197C09770F11092260281E0809327
:101EB00045025DCCD6011C96ED91FC911D979B8649
:101EC0008E010F5F1F4F22E0AE01455F5F4F61E063
:101ED00080810E946F1B89818F7190E0982F8827E5
:101EE0002A81822BF601268537852817390710F4B9
:101EF00097878687D60151969C938E935097C0976B
:101F00000CF0ADCFF60182898E7F828BC6010E94D4
:101F100085222DCC2F84F401242D11922A95E9F7E6
:101F20005B861C8669825396AC905397B12C6501F1
:101F300034E1C30ED11CC00ED11E940147E061E014
:101F40001C968D919C911D970E9454169E01255FB1
:101F50003F4F42E061E0D8011C968D919C911D9706
:101F60000E9454168C85B82FBF733B2E8074782E38
:101F7000F801EA0DFB1D8A81848B8B81F601818338
:101F80008C8182838D8183838E8184838F818583FD
:101F9000D80153968C9153978A5F53968C938F32C6
:101FA00008F0AEC1772031F0F8018189928901965D
:101FB000928B818B332009F49DC1D8011E968C91A0
:101FC0001E978E7F1E968C93C8010E943922F4CBF7
:101FD0008FE789838EEF8A830E9487256A8B7B8BAC
:101FE0008C8B9D8B960142E060E0F701848595859E
:101FF0000E9454160E9487254B015C01DC01CB0135
:102000002A893B894C895D89821B930BA40BB50BF4
:1020100081329340A105B10508F4BBC0D7015696A3
:102020008C91F701E80FF11DBFEFB78B92E0908F15
:10203000118E8D5FF701868B6FCB318D308F789449
:10204000AC01415F5F4F5F934F931F922F93FC0151
:1020500087891F928F9389811F928F931F930F936C
:102060000E94B7382DB73EB7265F3F4F0FB6F894A2
:102070003EBF0FBE2DBFD1C928893989E217F307AA
:1020800009F008C1809590E02A8530E08217930717
:1020900009F43CC1D70156968C91F701E80FF11D68
:1020A000BFEFB78B93E0C3CFCE8ADF8AE88EF98E7D
:1020B00034C96115710550E18507910508F0EACC36
:1020C0008B019C0101501F4F2F4F3F4F5527432F2E
:1020D000322F212F0E94F13EDC01CB0140912B02D7
:1020E00050912C0260912D0270912E02840F951F49
:1020F000A61FB71FCACCC09077028C2D807F80317D
:1021000009F00ECC1D1508F46ACC8D2D90E0FC0171
:10211000EB58FD4F20812E3709F002CC9C012D5841
:102120003D4F4901FC01EC58FD4F9081D9018C9144
:10213000292F30E07901F82A6DEF6D0D86E792E0E6
:102140000E949D25E816F90609F49EC1B09076021A
:10215000E7CB403F09F023CE41CE1C92F601E15B74
:10216000FF4F60813497808191810E94F727D601CB
:1021700053968C91A7CBF7018689E80FF11D2FEFBD
:10218000278B91E0908F118E8D5FD70156968C939F
:10219000C3CA80EC89831A82960142E061E0D701CC
:1021A0001C968D919C911D970E94541649812A81FD
:1021B000942F9227892F82958F709827892F869543
:1021C00086958927982F9695892780FDB3C046FF6D
:1021D000E8C0F7018689E80FF11D2FEF278B35E066
:1021E000A2C0912C6A2DC7010F960E947D21BEE1ED
:1021F000B91508F058C2F701818992890196928B2E
:10220000818B1092260281E080935B0229CAD7015C
:102210001C96ED91FC911D971481B281BA8B0381BC
:1022200040E06B2F702F812F0E94931C0E94872506
:102230004B015C01E0E18E0E911CA11CB11C0E94BF
:1022400087252B2D86169706A806290B27FFF7CF83
:10225000F89441E06A89702F812F0E94931C0E949C
:1022600087254B015C017894D601EAE01D92EA953E
:10227000E9F7F4E8F98323E22A8396014AE061E072
:10228000D7011C968D919C911D970E945416FE01BA
:10229000339685E09191892728E030E005C0880FCA
:1022A0002150310909F4E8CE87FFF9CF880FBDE14D
:1022B0008B27F6CF54896589908921893289438992
:1022C0008F5F858F78946F935F934F933F932F9396
:1022D0009F9389811F928F931F930F930E94B7380A
:1022E0006DB77EB7665F7F4F0FB6F8947EBF0FBEA7
:1022F0006DBF6BC81092260281E0809346025CCAD3
:10230000622DC8010F960E947D214CCE898584FFE5
:1023100038C08B8187FD87C0F7018689E80FF11DE2
:102320002FEF278B34E0308F118E8D5FD7015696BB
:102330008C93F2C9F7018689E80FF11D2FEF278BE7
:1023400093E020CFF601EC5AFF4F2081318142818A
:102350005381E92F621773078407E50BE7FF9FCAD4
:10236000AFCAF601EC5AFF4F608371838283938377
:10237000369760813397808191810E94F72780E0B2
:102380009DCAD70156968C91F701E80FF11DBFEF5A
:10239000B78B25E0208F118E8D5FD70156968C93D9
:1023A000BBC984189508A608B708F70130893323FC
:1023B000C9F08FEF830F61E070E002C0660F771FF6
:1023C0008A95E2F7CB01092E000CAA0BBB0B880EF5
:1023D000991EAA1EBB1E04C0B694A7949794879416
:1023E0003A95D2F77FEF87169104A104B10408F063
:1023F00041C0842F90E0AC01542F4427550F550F56
:10240000F4E02F9FC0011124842B952BD701569601
:102410002C91F701E20FF11D878A808F918F2D5F3C
:10242000F701268B79C984189508A608B708B1E585
:102430008B16B5E59B06A104B10408F09CCE2C8157
:1024400030E0220F331F90E0982F8827990F822BBE
:10245000932BF7013689E30FF11D2F8126952F73FA
:10246000278B808F918F3D5FD70156963C9354C93F
:1024700011E07CCAD70156968C91F701E80FF11D47
:10248000BFEFB78B91E0D3CD802F8D7F80932A0251
:1024900080910902C81205C181E08C0D8F708061A6
:1024A00080930902B8E78B16B2E09B0609F008F4A6
:1024B000C1C0E8E7F2E010ED212E15E0312EDC8EF0
:1024C000CDB6DEB68F010F5F1F4F2081222309F4A6
:1024D000E5C0F1018491281708F0E0C030E0220F38
:1024E000331F220F331F220F331FF901E75EFC4F0A
:1024F000E4914DB75EB764E0E69F4019510911249D
:102500000FB6F8945EBF0FBE4DBF8DB79EB7019654
:10251000F901E55EFC4F4491F901E45EFC4F6591E1
:102520007491FB01640F711DAC01DB8ACA8A9B8F19
:102530008A8FE617F70709F482C08016910608F41F
:102540006EC0A491A53028F1A73009F068C0280119
:10255000BFEF4B1A5B0AD801AC9082010A0D111D26
:102560008016910608F45BC0B12CC12CD12CDA0185
:10257000AD92BD92CD92DC921397612C712C149682
:102580004D925D926D927C921797485F5F4F3196A6
:10259000D0CF7A0184E0E80EF11C68019FEFC91AE0
:1025A000D90AD8011C91912F9F77492E512C612C6B
:1025B000712C012F00760036A9F117FF3EC086016D
:1025C0000F5F1F4FD80111978C91440C551C661C4E
:1025D000771C440C551C661C771C440C551C661C4F
:1025E000771C440C551C661C771C440C551C661C3F
:1025F000771C440C551C661C771C440C551C661C2F
:10260000771C982F9F77492A87FDDACFDA014D9200
:102610005D926D927C921397A70131968ACF87E0E5
:102620000E94803EB0EE4B2A55245A94652C762C9D
:10263000C4CFDC8CCC24C3949CC98601E7CFCA8864
:10264000DB888A8D9B8D40912702442331F0F9016C
:10265000E65EFC4FE491E0FF11C0225E3C4FF901C1
:1026600025913491F90119950FB6F894DEBE0FBE8D
:10267000CDBE08151905E8F6F80122CF8091280291
:102680001F928F93E4E8F6E0FF93EF930E94B73830
:102690000FB6F894DEBE0FBECDBEEBCF85E00E9434
:1026A000803E1D2D5BC9F1E0F91508F4AACD86CB5B
:1026B000CF93DF93EC0165E773E188810E945E2E82
:1026C000FC018C819D81AE81BF81892B8A2B8B2B54
:1026D00051F420E0F89494A59D7F922B94A77894D0
:1026E000DF91CF91089522E0F5CF0F931F93CF9301
:1026F000DF938C014DE250E065E773E1FC018081DE
:102700000E942F2EEC01F801848518160CF041C0B0
:1027100064E06CA7F80184810E9435246A8F7B8F66
:102720008C8F60E0F80180850E9435246D8F7E8F4C
:102730008F8F80E090E0A0E0B0EC88A399A3AAA3DB
:10274000BBA3F80180899189A289B3898E8B9F8B65
:10275000A88FB98F6BE070E0CE0184960E94C02EE6
:102760008E899F89A88DB98D8997A105B10548F0FB
:102770008FE794E19B838A83DF91CF911F910F9123
:1027800008958CA580618CA7DF91CF911F910F9147
:10279000089560E0BECFCF93DF93EC0165E773E16E
:1027A00088810E945E2EFC018C819D81AE81BF815B
:1027B000F8944685578560897189452B462B472BB0
:1027C00079F484839583A683B783828B938BA48BC0
:1027D000B58B84A5877F84A77894DF91CF910895E6
:1027E00086E10E94803E0F931F93CF93DF938C016D
:1027F00065E773E1DC018C910E945E2EEC010E9482
:10280000DA2EFC01D80114964D915D916D917C9169
:102810001797428353836483758318968D919C9197
:10282000199791878087892B09F466C0D8011C9677
:102830008D919C911D97978386831286F8948CA521
:10284000282F217081FB992790F9291729F091E011
:1028500089279285916092874E855F8568897989FD
:10286000452B462B472B59F583FD19C08CA71182A8
:1028700010828CA19DA1892BA9F1AEA1BFA1ED93DE
:10288000FC93FFA3EEA3CE010E94E337CE010E948A
:102890001B3C7894DF91CF911F910F910895809107
:1028A00048029091490291838083F0934902E0931A
:1028B00048027894DF91CF911F910F9108958CA7D2
:1028C000118210828CA19DA1892B89F0AEA1BFA19C
:1028D000ED93FC93FFA3EEA37894DF91CF911F912A
:1028E0000F910895FFA3EEA3FDA3ECA3CCCFFFA30C
:1028F000EEA3FDA3ECA3CDCF87E10E94803ECF9253
:10290000DF92EF92FF920F931F93CF93DF93EC012F
:10291000EA8DFB8D8C8D80830E9487250E891F890F
:10292000288D398D6B017C01C00ED11EE21EF31E75
:102930008E859F85A889B9890197A109B1098E87DC
:102940009F87A88BB98B80FF0EC0CC82DD82EE8280
:10295000FF8281E0DF91CF911F910F91FF90EF9067
:10296000DF90CF900895892B8A2B8B2B59F14885C6
:1029700059856A857B858A899B89AC89BD89840F45
:10298000951FA61FB71F8A8B9B8BAC8BBD8B0C85AD
:102990001D85012E000C220B330B400F511F621FAF
:1029A000731F488759876A877B872B2F8C159D0556
:1029B000AE052F0927FDC9CF8C839D83AE83BF83CE
:1029C00081E0C8CFCE010E94E337811102C080E0D0
:1029D000C1CF4C815D816E817F81972F4C155D0544
:1029E0006E059F0997FFB6CF4C195D096E097F09E7
:1029F0004038514C6F4F7F4F0CF0A7CF88E10E94B9
:102A0000803E46E050E063E375E1FC0180810C9478
:102A10002F2ECF92DF92FF920F931F93CF93DF93CE
:102A2000EC0163E375E18C810E945E2E6C01F884F9
:102A30000F2D10E0A8014D5F5F4F69E075E18881BF
:102A40000E942F2EFC01D182C082F2826C857D858E
:102A5000A8010396DF91CF911F910F91FF90DF9016
:102A6000CF900C94A13FFF920F931F93CF93DF93CE
:102A70008C0146E050E063E375E1FC0180810E9437
:102A80002F2EEC01F801F08461E0F11060E0F80114
:102A900084810E9435246A837B838C838D81F1102D
:102AA00009C091E0892B8D83DF91CF911F910F9108
:102AB000FF90089599E0892B8D83DF91CF911F912D
:102AC0000F91FF9008950F931F93CF93DF938C0185
:102AD00068E676E2FC0180810E945E2EEC010E9495
:102AE000C93B909100028A8D981303C08FEF8093A9
:102AF0000002F80184819581A681B781888B998B2A
:102B0000AA8BBB8B8C839D83AE83BF83808591858D
:102B1000A285B3858C879D87AE87BF8784858E8F7E
:102B200091E0980F9D8F4089518962897389488708
:102B300059876A877B87248935893F8B2E8B208D27
:102B4000318D398F288F948D9C8F811105C0DF9135
:102B5000CF911F910F910895CE01DF91CF911F91D9
:102B60000F910C941B3C8BE10E94803E8F929F92B0
:102B7000AF92BF92FF920F931F93CF93DF93EC011D
:102B800063E375E188810E945E2E8C01F88483E006
:102B90008F1508F484C0F8018581867009F07FC024
:102BA0008C849D84AE84BF848C819D81AE81BF81E5
:102BB000892B8A2B8B2B09F074C0E0EAF6E0A591F3
:102BC000B49111968C9180FD04C060E088E00E9471
:102BD000352460E089E00E94352460E08AE00E94AC
:102BE000352460E08BE00E945A1C80E58CBD1DBC42
:102BF0008114F2E19F06FAE7AF06B10408F041C084
:102C0000811489E098068DE3A806B10418F5E0E880
:102C10008E16E4E89E06EEE1AE06B104C0F5F0E4DF
:102C20008F16F2E49F06FFE0AF06B10468F580E27C
:102C3000881681EA980687E0A806B10458F590E066
:102C4000E0E98E16E0ED9E06E3E0AE06B10428F55D
:102C500083E002C090E080E0CF2DCC0FCC0FC065A8
:102C6000C82BF801C0839183858184608583DF91BF
:102C7000CF911F910F91FF90BF90AF909F908F9039
:102C8000089591E080E0E8CF90E081E0E5CF91E029
:102C900081E0E2CF91E082E0DFCF82E0DDCF0E94F1
:102CA000B3158EE20E94803E6F927F928F929F9228
:102CB000AF92BF92CF92DF92EF92FF920F931F934A
:102CC000CF93DF934C01E62E142F6901DC0115969A
:102CD0007C901597872D867009F451C071FC39C01E
:102CE000F401908181819CBD8DBDF72DF1706F2E17
:102CF00070FCC8C0EE2009F49CC08FEF810F112337
:102D000051F0F60190819EBD0DB407FEFDCF9EB53A
:102D100091938150B8F7662091F1072D069506959D
:102D20000695402F40954170D40112966D917D918A
:102D30008C91DF91CF911F910F91FF90EF90DF90D9
:102D4000CF90BF90AF909F908F907F906F900C949A
:102D5000931CED91FC91418542706681778180855D
:102D60000E94931CB72DB1706B2E70FC17C0D4015C
:102D7000CD91DC91AA24AA94A10E111126C0DF9155
:102D8000CF911F910F91FF90EF90DF90CF90BF9068
:102D9000AF909F908F907F906F900895072D06952C
:102DA00006950695402F4170F401628173818481FC
:102DB0000E94931CD401CD91DC91AA24AA94A10E67
:102DC000112309F4AECF66246394B12C8FEFA81AB7
:102DD000B80AAC0CBD1CD601FC9008E010E0898557
:102DE00080FF35C0EE81FF81888580834F2D40783C
:102DF0006B817C818D810E94931CFF0CEE81FF8191
:102E000088858083110FE881F98190818A818923E7
:102E100091E009F490E0192B015009F7EE2011F030
:102E2000F6011083FFEFCF1ADF0AAC14BD0499F648
:102E300072CFF6019601210F311D2E173F0709F4BD
:102E40006ACF81918EBD0DB407FEFDCFF6CF4F2D19
:102E500040786B817C818D810E94931CFF0CEE81F8
:102E6000FF8188858083110FE881F98190818A81B3
:102E7000892391E009F490E0192BEE81FF81888588
:102E80008083CACF73FA442740F9F40162817381C9
:102E900084810E94931C662463942CCFCF93DF938C
:102EA000EC0163E375E188810E945E2E28853985F7
:102EB0004C8160E0DF91CF910C945416FF920F93F8
:102EC0001F93CF93DF93EC01188163E375E1812FAA
:102ED0000E945E2E0C81F884C9852F2D3C2F402F37
:102EE00061E00E945416CF93FF921F920F931F929E
:102EF0001F9383E496E09F938F930E94B7388DB71A
:102F00009EB708960FB6F8949EBF0FBE8DBFDF9197
:102F1000CF911F910F91FF900895AF92BF92DF92D2
:102F2000EF92FF920F931F93CF93DF93FC01A48541
:102F3000B585968547855089E18822893389F4884B
:102F4000A588B6887789008D118DD28C80858627DB
:102F50009C9384FD20C085FD22C086FD24C087FD92
:102F600026C09C93862F8295807F808768279C93BC
:102F700064FD2AC065FD25C066FD1CC067FD1EC03E
:102F80009C93DF91CF911F910F91FF90EF90DF9075
:102F9000BF90AF900895EA01E88285FFDECFE90196
:102FA000F88286FFDCCFE501788387FFDACFE8017E
:102FB000D882D7CFF501708367FFE2CFE801D882CE
:102FC000DFCFE901F882D8CFFA01E082D3CF5F9258
:102FD0006F927F928F929F92AF92BF92CF92DF9229
:102FE000EF92FF920F931F93CF93DF938C01FC011D
:102FF000C080D180E280F38084809580A680B780F5
:1030000066246A94660E662301F1EA01712CFFEFD3
:103010006F1A7F0A640E751E59900E948725DC0185
:10302000CB018C199D09AE09BF0988159905AA0520
:10303000BB0598F3652DC8010E948D170E94872556
:103040006B017C01C615D70539F7F801C082D18222
:10305000E282F382DF91CF911F910F91FF90EF9069
:10306000DF90CF90BF90AF909F908F907F906F90A8
:103070005F900895EF92FF920F931F93CF93DF938A
:103080008C0167EA70E3FC0180810E945E2E7C0166
:103090008FE090E00E949438EC0188E893E19E87ED
:1030A0008D87F8018089880F8C8761E084810E9478
:1030B0005A1C6E837F83888761E0F80184810E94B7
:1030C0003524688379838A8361E0F80180850E94D2
:1030D0005A1C69877A878B8761E0F80180850E9496
:1030E00035246B837C838D83F701D283C1838381F5
:1030F00081608383DF91CF911F910F91FF90EF90BB
:1031000008950F931F93CF93DF93EC0169EB78E160
:1031100088810E945E2E8C01FC0161857285838509
:1031200041E00E94931C488559856C81C801DF915C
:10313000CF911F910F910C94E7170F931F93CF938B
:10314000DF93EC0169EB78E188810E945E2E8C01AF
:10315000FC0161857285838540E00E94931C48854F
:1031600059856C81C801DF91CF911F910F910C940B
:10317000E717CF92DF92EF92FF920F931F93CF93B7
:10318000DF93EC014BE150E069EB78E188810E942C
:103190002F2E8C0160E08C810E943524F80161871C
:1031A0007287838760E088850E943524F8016487F0
:1031B0007587868760E08C850E943524F8016787D3
:1031C000708B818B60E088890E943524F801628BC6
:1031D000738B848B60E08C890E943524F801658BA9
:1031E000768B878B60E0888D0E943524F801608F94
:1031F000718F828FF8940E9487256B017C0160E0BB
:10320000C8010E948D170E9487257894DC01CB01AC
:103210008C199D09AE09BF09CC8CDD8CEE8CFF8C1E
:103220008C159D05AE05BF0548F4C81AD90AEA0AEF
:10323000FB0AF801C482D582E682F782DF91CF9142
:103240001F910F91FF90EF90DF90CF900895DF9244
:10325000EF92FF920F931F93CF93DF93EC01D888E7
:1032600083E08D15B0F163E375E188810E945E2EE5
:103270007C018AE090E00E9494388C0161E08C81AE
:103280000E945A1CF80160837183828360E0888504
:103290000E943524F80163837483858360E08C8504
:1032A0000E943524F801668377838087D186F701F1
:1032B0008581982F967081F4F701118300838260D5
:1032C0008583DF91CF911F910F91FF90EF90DF9059
:1032D00008958BE10E94803E0E94B315CF92DF9249
:1032E000EF92FF92CF93DF93EC010E9487256B0151
:1032F0007C019E01A0E8BEE30E942A3F20E432E464
:103300004FE050E00E94013FC20ED31EE12CF12C91
:103310000E9487256C157D058E059F05C8F3DF91FA
:10332000CF91FF90EF90DF90CF9008950F931F9370
:10333000CF93DF93EC01062F18E01DC06B817C81D9
:103340008D8140E00E94A21C000F8D859E850E9409
:103350006E196E817F81888541E00E94441C8D85B5
:103360009E850E946E19688179818A8140E00E9461
:10337000A21C115049F007FFE1CF69857A858B8542
:1033800041E00E94441CE0CF69857A858B8541E04D
:103390000E94441C8D859E850E946E196E817F81DE
:1033A000888541E00E94441CE985FA8510818B855F
:1033B00018238D859E850E946E19688179818A8186
:1033C00040E00E94A21C69857A858B8541E00E94BD
:1033D000441C111105C0DF91CF911F910F910895E9
:1033E00085E20E94803E4F925F926F927F928F9211
:1033F0009F92AF92BF92CF92DF92EF92FF920F9384
:103400001F93CF93DF938C01562E3A01FC018080ED
:103410009180A280B380C480D580E680F780EA01E5
:103420002196FA014080642D607F0E941F360E9421
:103430008725DC01CB0188199909AA09BB098C15DC
:103440009D05AE05BF0598F3642D6295607FC801A8
:103450000E941F360E9487256B017C01F801808441
:103460009184A284B384F1E05F1639F15A945A949E
:10347000852D90E00296680E791E5990652D607F2B
:10348000C8010E941F360E948725DC01CB018C19E0
:103490009D09AE09BF0988159905AA05BB0598F3D2
:1034A000652D6295607FC8010E941F360E948725A6
:1034B0006B017C01C615D70501F7F801C082D182E6
:1034C000E282F382DF91CF911F910F91FF90EF90F5
:1034D000DF90CF90BF90AF909F908F907F906F9034
:1034E0005F904F9008950F931F93CF93DF938C01BC
:1034F00080913F0290914002892B09F04BC060916E
:103500003E0270E0623071052CF482E080933E024E
:1035100062E070E0E0913A02F0913B024DB75EB795
:1035200041505F4F44275A959F01C0E0D0E0C90148
:10353000860F971F4817590730F121969C01C11536
:10354000A4E0DA07A1F78E1B9F0B0E949438D0935A
:103550004002C0933F0290933D0280933C020E9440
:10356000762EF80180819181A281B38180934102FE
:1035700090934202A0934302B0934402DF91CF9113
:103580001F910F910895209711F0C901DCCF80E1C0
:103590000E94803E8DE00E94803ECF9320913802B1
:1035A00030913902232B91F4FC01C0818C2F90E0E3
:1035B000880F991F880F991F0E94943890933902A1
:1035C00080933802C0933702CF9108958AE00E9419
:1035D000803E80913F02909140029F938F9321E023
:1035E00030912702311101C020E01F922F932091CA
:1035F00044022F93209143022F93209142022F9354
:10360000209141022F9321E0892B09F420E01F92A1
:103610002F9386E696E09F938F930E94B7388DB7DD
:103620009EB70C960FB6F8949EBF0FBE8DBF08953F
:10363000CF93DF93EC01988140913702A09138023B
:10364000B09139020BC0FD0184E0989FE00DF11D9F
:103650001124208131812617370741F09F5F94178D
:1036600090F380E090E0DF91CF910895988382817C
:103670009381DF91CF910895CF92DF92EF92FF92E5
:103680006B017C0109C00E948725292F6C157D05DF
:103690008E052F0927FF09C08091BC0087FFF3CF5B
:1036A000FF90EF90DF90CF90089580E30E94803EDE
:1036B00024EA2093BC000E943C1B8091B90090E05A
:1036C000A0E0B0E080319105A105B10521F0089797
:1036D000A105B10509F408958FE20E94803E7F9212
:1036E0008F929F92AF92BF92CF92DF92EF92FF9212
:1036F0000F931F93CF93DF93782EC62F942EB52E62
:10370000822E0E9487256B017C0120E8C20E28E3EF
:10371000D21E21E0E21EF11CC701B6010E94581B17
:103720007092BB0084E88093BC00C701B6010E9480
:103730003C1BAA24AA94AC0ECC23B1F0C92DDB2DDE
:10374000B12C8FEFA81AB80AAC0EBD1E94E8992EC2
:1037500089918093BB009092BC00C701B6010E9482
:103760003C1BAC16BD06A1F7C701B6010E94581B51
:10377000872D81608093BB0084E88093BC00C701E3
:10378000B6010E943C1BDFEFD80D882009F15801DB
:10379000CD2F84EC982ECC2369F09092BC00C70109
:1037A000B6010E943C1B8091BB00F50181935F0133
:1037B000C15099F7F801ED0FF11DEF0184E88093F6
:1037C000BC00C701B6010E943C1B8091BB008883EE
:1037D00084E98093BC00DF91CF911F910F91FF90FE
:1037E000EF90DF90CF90BF90AF909F908F907F90A1
:1037F0000895BF92CF92DF92EF92FF920F931F93A3
:10380000CF93DF93D82FC62FB42E152F0E94872574
:103810006B017C0120E8C20E28E3D21E21E0E21EEB
:10382000F11CC701B6010E94581BD093BB0084E86D
:103830008093BC00C701B6010E943C1B0FEF0C0F28
:10384000CC23A9F0CB2DD12F10E00F5F1F4F0C0F11
:103850001D1F84E8B82E89918093BB00B092BC00F4
:10386000C701B6010E943C1BC017D107A1F784E92C
:103870008093BC00DF91CF911F910F91FF90EF904B
:10388000DF90CF90BF900895FB012FB7F8949281FD
:10389000141644F4982B8095928391818923818317
:1038A0002FBF0895809598239283918189238183E6
:1038B0002FBF08958036A0F567FD32C0E82FE6954A
:1038C000E695E695F0E0EE0FFF1FE256F94FA59161
:1038D000B491109729F1877021E030E0A90102C06E
:1038E000440F551F8A95E2F7CA014FB7F894129614
:1038F0003C911297662381F0382B282F2095129641
:103900003C93129711963C911197232311962C9377
:1039100011974FBFBD010895282F20953223EFCF77
:103920008BE20E94803EFB012FB7F89492814111F7
:1039300005C08095892382832FBF0895892B8283B8
:103940002FBF0895FB012FB7F8949281411109C050
:10395000382F3095932392839181892B81832FBFB8
:103960000895982B92839181892B81832FBF08958D
:10397000CF92DF92EF92CF93DF93EC0161E08885E5
:103980009985AA85BB85892B8A2B8B2B09F460E04E
:103990008C810E9435246B01E82E44E250E068EBF4
:1039A0007CE188810E942F2EFC01C48AD58AE68A98
:1039B00021E0488559856A857B85452B462B472B19
:1039C00009F420E04C855D856E857F85452B462B6F
:1039D000472BB1F430E0232BFC0123A348895989FC
:1039E0006A897B89478B508F618F728F6AE070E0A4
:1039F0004F96DF91CF91EF90DF90CF900C94C02E37
:103A000030E1E9CFCF93DF93EC0168EB7CE1888173
:103A10000E945E2EF894FC01278D30A1232B69F4BF
:103A20004C815D816E817F81FC01438F548F658F56
:103A3000768F7894DF91CF91089584E10E94803E43
:103A40008F929F92AF92BF92CF92DF92EF92FF92AE
:103A50001F93CF93DF93EC01EF8CF8A0E114F104F6
:103A600009F4F0C0F7018081918198A38F8F86803F
:103A70009780A084B18411E081149104A104B10461
:103A800009F4A1C06C897D898E89412F0E94931C05
:103A90008091480290914902F70191838083F092CE
:103AA0004902E092480281149104A104B104E9F0B2
:103AB0008B8D9C8DAD8DBE8D88169906AA06BB0692
:103AC000A0F44F89588D698D7A8D41155105610596
:103AD000710509F45BC08C819D81AE81BF81480F67
:103AE000591F6A1F7B1F166022C08BA131E0811411
:103AF0009104A104B10409F068C084FB992790F9EE
:103B000021E09227391709F443C04F89588D698DF8
:103B10007A8D4115510561057105D1F18C819D8129
:103B2000AE81BF81480F591F6A1F7B1F1460EF8D44
:103B3000F8A1309709F077C02BA1488B598B6A8B7D
:103B40007B8B2071212B2BA311FF5FC0880D991D4A
:103B5000AA1DBB1D12FD52C026EB33E33B832A8313
:103B60008C839D83AE83BF8388869986AA86BB8615
:103B70008B8D9C8DAD8DBE8D88199909AA09BB09C5
:103B80008C879D87AE87BF8781E011C012608BA1B3
:103B9000EF8DF8A13097D9F4188A198A1A8A1B8AEE
:103BA0008071812B8BA3812F827011FD34C0DF9136
:103BB000CF911F91FF90EF90DF90CF90BF90AF908B
:103BC0009F908F90089510E05DCF30E096CF4281B6
:103BD000538164817581488B598B6A8B7B8B807193
:103BE000912F9460892B8BA311FF0FC08C819D8135
:103BF000AE81BF81880D991DAA1DBB1D2B2F841777
:103C00009507A607270B27FDA7CF4C835D836E83FF
:103C10007F8381E0CCCF40E050E0BA018C819D8170
:103C2000AE81BF8193CFC280D380E480F580872F9F
:103C30004C155D056E058F0987FD07C08BA1B70187
:103C4000A601C9CF85E10E94803E83E10E94803EAB
:103C5000FC01868580FF06C0218932892F5F3F4F96
:103C6000328B218B81FF0DC0DF01A85BBF4F0D9010
:103C7000BC91A02D2C91DF01A65BBF4F9C9192239C
:103C800039F4816086871092260281E08093470292
:103C9000448155816681778180859185A285B38530
:103CA000840F951FA61FB71F84839583A683B783B0
:103CB00081E00895FC019685916096871092260216
:103CC00081E08093460280E00895FC019289916032
:103CD000928B1092260281E08093450280E0089545
:103CE0000F931F93CF93DF93FC01C081D181128189
:103CF000038169EF7EE18C2F0E945E2EFC01EC5A5D
:103D0000FF4F23812F9322812F9321812F93208195
:103D10002F933797808182FB882780F91F928F939A
:103D20000F931F93DF93CF938BE196E09F938F9335
:103D30000E94B7388DB79EB70C960FB6F8949EBF09
:103D40000FBE8DBFDF91CF911F910F9108950F93FB
:103D50001F93CF93DF938C0169EF7EE1DC018C919F
:103D60000E945E2EEC01F80180859185A285B385C5
:103D7000FE01E05BFF4F80839183A283B383892B95
:103D80008A2B8B2B59F4359711821082C35BDF4F3E
:103D90001882DF91CF911F910F910895F8018481CE
:103DA0009581A681B781FE01EC5AFF4F80839183F4
:103DB000A283B38366E576E2D8011C968C910E94BB
:103DC0005E2EFE01E55BFF4F918380833396D80121
:103DD00050968C9150978083319654968C91808325
:103DE000C35BDF4F86E08883DF91CF911F910F91F6
:103DF00008950F931F93CF93DF938C0148E550E014
:103E000069EF7EE1FC0180810E942F2EEC0188E2A7
:103E10009EE19B838A8367EA70E3F80184810E94B4
:103E20005E2E9D878C87DF91CF911F910F91089512
:103E30000F931F93CF93DF938C0148E450E068E128
:103E40007FE1FC0180810E942F2EEC018AE59EE13A
:103E50009B838A8363E375E1F80184810E945E2E6F
:103E60009D878C87DF91CF911F910F9108950F93BC
:103E70001F93CF93DF938C014CE450E067E37FE125
:103E8000FC0180810E942F2EEC0185E69EE19B8340
:103E90008A8367EA70E3F80184810E945E2E9D8721
:103EA0008C87DF91CF911F910F9108950F931F93EE
:103EB000CF93DF938C0169EF7EE1FC0180810E944A
:103EC0005E2EEC010E94C93B8E858E7F8E87F801A5
:103ED00084819581A681B7810097A105B105F1F094
:103EE00088879987AA87BB87188A1F861A8A198AA2
:103EF0001B8AF8940E948725088519852A853B85A9
:103F0000DC01CB01800F911FA21FB31F8C839D8307
:103F1000AE83BF83CE010E941B3C7894DF91CF918A
:103F20001F910F9108950F931F93CF93DF938C01EF
:103F300068EC7AE3FC0180810E945E2EEC010E9415
:103F4000C93B1E86F80180859185A285B385892BA2
:103F50008A2B8B2B29F4DF91CF911F910F9108951C
:103F600084819581A681B7818C839D83AE83BF8335
:103F700080859185A285B38588879987AA87BB8725
:103F80001B8A1A8A1D8A1C8A1E8A8485888BCE0108
:103F9000DF91CF911F910F910C941B3C2F923F9278
:103FA0004F925F926F927F928F929F92AF92BF9249
:103FB000CF92DF92EF92FF920F931F93CF93DF93F5
:103FC00000D01F921F92CDB7DEB73C0167E37FE1BF
:103FD000DC018C910E945E2E4C018AE38B83D4011C
:103FE0001C96ED91FC911D978E010C5F1F4F21E0F7
:103FF000AE014D5F5F4F61E080810E946F1B8C813D
:1040000084FF06C0F401858996890196968B858B7D
:1040100082E78D830E9487251B012C01D4011C9609
:10402000ED91FC911D978E010F5F1F4F22E0AE01B5
:104030004B5F5F4F61E080810E946F1B0E9487256C
:1040400029812F71A22EB12CBA2CAA242A81A22A4E
:104050000B2C000CCC08DD087B018C01E218F30866
:1040600004091509A2019101F3016081C40143967D
:104070000E94BC250F900F900F900F900F90DF9132
:10408000CF911F910F91FF90EF90DF90CF90BF9055
:10409000AF909F908F907F906F905F904F903F90E8
:1040A0002F900895EF92FF920F931F93CF93DF937A
:1040B000EC010E94F91E69EF7EE188810E945E2E6C
:1040C0008C017C0188E4E80EF11C61E088850E9487
:1040D0005A1CF70160837183828382E0F80186872E
:1040E000DF91CF911F910F91FF90EF9008952F9244
:1040F0003F924F925F926F927F928F929F92AF9278
:10410000BF92CF92DF92EF92FF920F931F93CF93C4
:10411000DF931F921F92CDB7DEB73C0168E17FE1CC
:10412000FC0180810E945E2E4C018FEA89831A82F5
:104130000E9487251B012C019E012F5F3F4F42E00B
:1041400061E0F401848595850E9454160E948725BC
:104150002A812F71F6E02F9F500111240B2C000CA7
:10416000CC08DD087B018C01E218F308040915096D
:10417000A2019101F3016081C4010F960E94BC2548
:104180000F900F90DF91CF911F910F91FF90EF90C3
:10419000DF90CF90BF90AF909F908F907F906F9067
:1041A0005F904F903F902F9008957F928F929F92B3
:1041B000AF92BF92CF92DF92EF92FF920F931F9335
:1041C000CF93DF937C01DC01DC9168EC7AE38D2FE7
:1041D0000E945E2E8C01F701C481B084A184DC01B1
:1041E0001F969C90B2E09B1609F44FC00E94872551
:1041F0006B017C012B2D3A2D4C2F61E0D8011C96D0
:104200008D919C911D970E9454160E9487258B01C9
:104210009C010C191D092E093F090132134021058B
:10422000310558F54C2F50E0E1E09E1659F1AF9260
:10423000BF925F934F93FF92EF92DF92CF921F92C4
:10424000DF9380E296E09F938F930E94B7388DB7FB
:104250009EB70C960FB6F8949EBF0FBE8DBFDF9130
:10426000CF911F910F91FF90EF90DF90CF90BF9073
:10427000AF909F908F907F90089540E050E0E1E0F4
:104280009E12D5CF6B017C01D2CFDC011C96ED9143
:10429000FC911D9794808280738040E0682D772D7B
:1042A000892D0E94931C0E9487256B017C01B0E13F
:1042B000CB0ED11CE11CF11C0E9487252F2DC616A8
:1042C000D706E806290B27FFF7CFF89441E0682DC1
:1042D000772D892D0E94931C0E9487256B017C01FC
:1042E00078942B2D3A2D4C2F61E0F801848595852B
:1042F0000E9454164C2F50E09ACFCF93DF93EC01DD
:1043000005969F938F938C811F928F9389818F93B2
:1043100088818F931F926F9381E196E09F938F9393
:104320000E94B7381C82888199810196998388837D
:104330008DB79EB70A960FB6F8949EBF0FBE8DBF7D
:10434000DF91CF9108950F931F93CF93DF9300D008
:10435000CDB7DEB7DC011C96ED91FC911D9788E18D
:104360008B838E010F5F1F4F22E0AE014D5F5F4FC9
:1043700061E080810E946F1B89819A81982789273B
:1043800098270F900F900F90DF91CF911F910F9171
:1043900008954F925F926F927F928F929F92AF9209
:1043A000BF92CF92DF92EF92FF920F931F93CF9322
:1043B000DF934C0169EF7EE1FC0180810E945E2E5B
:1043C000EC018E8581FF31C0F8940E9487259B0106
:1043D000AC01FE01E85BFF4F0190F081E02D908180
:1043E000FE01E65BFF4F8081892378948823D9F111
:1043F000A12CB12C6501E12CF12C8701F401608125
:10440000CE010F960E94BC25DF91CF911F910F9195
:10441000FF90EF90DF90CF90BF90AF909F908F90E4
:104420007F906F905F904F9008950E9487252B0199
:104430003C01CE010E94A321182F0E94872513FD65
:104440000CC0A12CB12C65017B018C01E418F5088E
:1044500006091709A3019201D1CF24E0A22EB12CA5
:10446000C12CD12CF1CF64E0A62EB12CC12CD12CC3
:10447000C2CF0F931F93CF93DF93EC01F8940E9468
:104480008725088519852A853B85DC01CB01800FAE
:10449000911FA21FB31F8C839D83AE83BF83CE0168
:1044A0000E941B3C7894DF91CF911F910F9108954A
:1044B0000F931F93CF93DF938C0168E17FE1FC01A1
:1044C00080810E945E2EEC010E94C93B1E86F8018D
:1044D00084819581A681B7810097A105B10529F452
:1044E000DF91CF911F910F91089588879987AA87AF
:1044F000BB87188A1F861A8A198A1B8ACE01DF9108
:10450000CF911F910F910C9439220F931F93CF934A
:10451000DF93EC01F8940E948725088519852A8588
:104520003B85DC01CB01800F911FA21FB31F8C8341
:104530009D83AE83BF83CE010E941B3C7894DF91A4
:10454000CF911F910F9108950F931F93CF93DF93F6
:104550008C0167E37FE1FC0180810E945E2EEC010B
:104560000E94C93B1A8AF80184819581A681B7818E
:104570000097A105B10529F4DF91CF911F910F910B
:10458000089588879987AA87BB871C8A1B8A1E8AF9
:104590001D8A1F8A1F861E86198A188ACE01DF91FE
:1045A000CF911F910F910C9485228EE10E94803E45
:1045B0000F931F93CF93DF93FC01A189B2898D9153
:1045C0009C911197928B818B16968D919C91179748
:1045D000C085D185228521113FC02FB7F894AC0149
:1045E0005527598348832FBF2091480230914902B3
:1045F00011963C932E93B0934902A0934802A1894F
:10460000B289109759F5278530898217930741F0B1
:1046100083859485A585B6850097A105B10531F4FC
:1046200080E0DF91CF911F910F91089544815581D2
:1046300066817781840F951FA61FB71F848395839A
:10464000A683B78385ED92E29383828381E0DF9135
:10465000CF911F910F9108958883C6CF12964D91E7
:104660005D916D917C91159727853089821793070D
:1046700041F083859485A585B6850097A105B10590
:1046800051F4448355836683778381E0DF91CF9132
:104690001F910F9108950481158126813781800F24
:1046A000911FA21FB31F2B2F84179507A607270B57
:1046B00027FFE7CF8DE10E94803EEF92FF920F939C
:1046C0001F93CF93DF937C0167ED73E2DC018C9144
:1046D0000E945E2E8C010E94DA2EEC01F70184818B
:1046E0009581A681B7818A839B83AC83BD838085B6
:1046F00091859F838E83F89419821882D8015196F0
:104700008D919C915297892BB9F15396ED91FC9123
:104710005497D183C0835496DC93CE93539780E013
:1047200090E07894892B39F4DF91CF911F910F910C
:10473000FF90EF900895C8010E94C93BD8011296DE
:104740008D919C911397855D9242F1F08A819B81B6
:10475000AC81BD8128ED32E2F8013383228384836A
:104760009583A683B783C801DF91CF911F910F91E5
:10477000FF90EF900C941B3CF801D48BC38BD28B31
:10478000C18B81E090E0CDCF8A819B81AC81BD81DE
:10479000F8014481558166817781272F4817590791
:1047A0006A072B0B27FFD6CF8DE10E94803ECF9268
:1047B000DF92EF92CF93DF93EC01488559856A85AC
:1047C0007B852C858C810E94EE2E6B01E82E45E1C5
:1047D00050E067ED73E288810E942F2EFC01C086B5
:1047E000D186E28688899989908B87878C899D8973
:1047F000AE89BF8983879487A587B68788ED92E2C3
:104800009383828368E070E0CF014196DF91CF917E
:10481000EF90DF90CF900C94C02EB0990FC0809194
:104820004A0290914B0201961092060210920502E4
:10483000909308028093070281E0089581E086BB8F
:1048400080914A0290914B02019690934B02809383
:104850004A0220E030E8309306022093050290934C
:1048600008028093070281E00895803678F5E82FEA
:10487000E695E695E695F0E0EE0FFF1FE256F94F5C
:10488000A591B491109711F1877021E030E0A90152
:1048900002C0440F551F8A95E2F7CA013FB7F8944A
:1048A00012962C91129761110FC0409524231296F5
:1048B0002C93129711962C911197282B11962C93CB
:1048C00011973FBFBD010895242BF1CF8CE20E94C8
:1048D000803E1F920F920FB60F9211240BB60F92CB
:1048E000EF92FF920F931F932F933F934F935F93FA
:1048F0006F937F938F939F93AF93BF93CF93DF93E8
:10490000EF93FF930DC07A01809184009091850010
:104910008E199F0997FD7CC07894B2999AC0F8943B
:10492000C0912202D0912302EA81FB81309709F0E5
:10493000ADC0EA8DFB8D2C8D20838E859F850197E0
:1049400009F4C1C09F878E8788859985AA85BB8514
:104950004C815D816E817F81480F591F6A1F7B1FCB
:104960004C835D836E837F8320832CA525FF0EC03F
:104970000C851D85012E000C220B330B800F911F1F
:10498000A21FB31F88879987AA87BB87E881F9810F
:104990000481158126813781872F401751076207CF
:1049A000830B87FDB0CF7801F0932302E0932202BE
:1049B000A0912402B091250214960D911D912D9184
:1049C0003C911797872F401751076207830B87FF8A
:1049D000FD01DF010190F081E02D04811581268128
:1049E0003781872F401751076207830B87FFF1CF6D
:1049F000F983E883CD93DC93D0932502C0932402FE
:104A000080918400909185008E199F0997FF84CF33
:104A1000863A9F4F0CF06AC0F0928900E0928800BD
:104A2000FF91EF91DF91CF91BF91AF919F918F91C6
:104A30007F916F915F914F913F912F911F910F91B6
:104A4000FF90EF900F900BBE0F900FBE0F901F9036
:104A50001895F89480918400909185009701281B07
:104A6000390B2038314CDCF12091260227FF43C05E
:104A70009C01205C304E30938B0020938A0024E010
:104A800026BB90938900809388003ECFCE01199574
:104A90004C815D816E817F81811178CFE881F981C0
:104AA000E480F580F0932302E093220280912402B7
:104AB00090912502C817D90709F026CFF093250257
:104AC000E093240221CFCE010E94E337EA8DFB8DD3
:104AD0009C8D90834C815D816E817F81DDCF2091A3
:104AE00027022111C1CF8AE20E94803E7894B299B8
:104AF000B0CFF89409CF9C012854344F30938B00E9
:104B000020938A0024E026BB7C01F39485CF2FB745
:104B1000F894609184007091850080914A02909190
:104B20004B02B09902C02FBF08952FBF7F3FE1F322
:104B30000196089578940E94993C2FEF260F6623E2
:104B4000C1F0FC018FEF9FEF31918327082E8295F2
:104B5000807F8025092E982F82958F700826869554
:104B600098278927880F880F880F8025215060F7A4
:104B700008958FEF9FEF08956F927F928F929F928B
:104B8000AF92BF92CF92DF92EF92FF920F931F935B
:104B9000FC0183818F9382818F938481350146014B
:104BA000680E711C811C911CD401C301BF93AF938B
:104BB0009F936F9281818F9380818F931F930F9327
:104BC000FF92EF925F934F933F932F931F926F93B8
:104BD00086E196E09F938F930E94B7388DB79EB77A
:104BE00044960FB6F8949EBF0FBE8DBF1F910F91D4
:104BF000FF90EF90DF90CF90BF90AF909F908F90FD
:104C00007F906F9008951F93CF93DF93EC01162F41
:104C1000AC89BD891097B9F01296ED91FC9113976C
:104C20008D919C9111979D8B8C8B11961C921E924D
:104C300013961C921E921297612FCD011995AC8983
:104C4000BD89109749F71092260281E080934C02AB
:104C5000DF91CF911F910895FC013897968990FFBD
:104C600008C0608D678B9A7F9460968BCF010E94FD
:104C7000032680E00895FC0186898460868B10926B
:104C8000260281E080934C024481558166817781C0
:104C900080899189A289B389840F951FA61FB71FA8
:104CA00084839583A683B78381E0089549E150E02A
:104CB00066E576E2FC0180810E942F2E2BE336E22E
:104CC000FC01338322832CE236E233872287089566
:104CD000CF93DC0114969C91149720E030E0C22F12
:104CE000F901E257F94FE4919E1741F02F5F3F4FD2
:104CF00020313105A1F78DE20E94803E87E9809343
:104D00007A002830E8F420917E0081E090E00C2EBB
:104D100001C0880F0A94EAF7822B80937E004FE14E
:104D200050E068E676E28C910E942F2EFC018EEA1C
:104D300096E293838283C28F81E0858FCF9108951D
:104D400020917D003C2F377081E090E001C0880FFA
:104D50003A95EAF7822B80937D00E1CFFC018091A8
:104D60007A0086FF0EC084819581A681B781885321
:104D7000984FAF4FBF4F84839583A683B78381E05D
:104D80000895828D90910002981781F09F3F59F706
:104D900080930002982F987090937B0087708064B6
:104DA00080937C0087ED80937A00DDCF8FEF809336
:104DB00000022091780030917900858D968D8917B9
:104DC00080F544895589240F351F8F5F358B248BDF
:104DD000858F891760F18689978928173907C8F167
:104DE000808D918D82179307A0F1138E1092260269
:104DF00081E080934D024089518962897389808561
:104E00009185A285B385840F951FA61FB71F808B40
:104E1000918BA28BB38B84839583A683B78381E028
:104E2000089581E0358B248B858F8917A0F6448106
:104E300055816681778184859585A685B785840FA0
:104E4000951FA61FB71F84839583A683B78381E030
:104E50000895838D8F5F838F948D891738F28091A9
:104E600027028111C2CF8AE10E94803EEF92FF9219
:104E70001F93CF93DF937C01FC01108166E576E2FE
:104E8000812F0E945E2EEC01F8948E8980FF09C06C
:104E9000F70164816F8B8A7F84608E8BCE010E94C4
:104EA0000326CE010E94C93BCE0108960E94C93B51
:104EB0001E8A8F8978941F921F921F921F921F92B1
:104EC0008F931F921F921F921F938DE496E09F93E2
:104ED0008F930E94B7388DB79EB70C960FB6F89493
:104EE0009EBF0FBE8DBFDF91CF911F91FF90EF90BE
:104EF0000895EF92FF920F931F93CF93DF938C014E
:104F000066E576E2FC0180810E945E2EEC01F89459
:104F10008E8980FF13C07E01F8E0EF0EF11CC701FF
:104F20000E94C93BF80184819581A681B7818C8755
:104F30009D87AE87BF87C7010E941B3C7894DF9195
:104F4000CF911F910F91FF90EF900895CF93DF9332
:104F5000EC010E94C93BCE0108960E94C93BEC8936
:104F6000FD89309751F090818181138212821182E4
:104F70001082E92FF82F3097B1F71D8A1C8A188EFE
:104F80001F8A1E8ADF91CF9108950F931F93CF93AD
:104F9000DF938C0166E576E2FC0180810E945E2E43
:104FA000EC01F8940E94A62781E08E8BF8018481A1
:104FB0009581A681B7818C839D83AE83BF838085D5
:104FC0009185A285B385888B998BAA8BBB8B892B06
:104FD0008A2B8B2B19F0CE010E941B3CF801848593
:104FE000888F7894DF91CF911F910F910895FC01E4
:104FF000968990FF07C0678B9A7F9460968BCF014C
:105000000C9403260895CF93DF93EC016A8D6623F9
:1050100009F453C0FC0150E031E020E0A38DB48DD1
:105020004C91958D942309F0532B2F5F330F3396BA
:105030002613F4CF2C85922F952729F08D8585276F
:1050400080959823D9F4888D5D8787FD03C08150B2
:1050500070F1888F4C815D816E817F818885998513
:10506000AA85BB85840F951FA61FB71F8C839D83C0
:10507000AE83BF8381E0DF91CF910895982F909503
:1050800029238523822B8C879E859830E0F621E0AA
:10509000290F2E87FE01E90FF11D87871092260246
:1050A00081E080934E028FEF888F5D87D3CF10927F
:1050B000260291E090934E02CCCF50E0BBCF0F93ED
:1050C0001F93CF93DF938C016CE978E2FC01808120
:1050D0000E945E2EEC010E94C93BF80184819581FB
:1050E000A681B7818C839D83AE83BF834085518524
:1050F00062857385488759876A877B8780898D8712
:105100008C871E861F8A8EEF888F8485898F87FD06
:1051100010C0452B462B472B29F4DF91CF911F91CF
:105120000F910895CE01DF91CF911F910F910C94B3
:105130001B3C8FE10E94803ECF93FC01C481C930AB
:10514000B8F44C2F50E09A01220F331F420F531F27
:10515000455E5F4F6CE978E2FC0180810E942F2E52
:10516000FC01C28F23E038E233832283CF9108957C
:1051700081E20E94803E0F931F93CF93DF938C01B7
:105180006CE978E2DC018C910E945E2EFC01D80172
:1051900014969C91828D9817B8F4292F30E0E9017C
:1051A000CC0FDD1F2C0F3D1FEF01C20FD31FF801E5
:1051B000648580850E945A1C6B8F7C8F8D8FDF9158
:1051C000CF911F910F91089580E20E94803EFC01D3
:1051D0004481558166817781208580810C94EE2EF3
:1051E000FC011092260281E080934F02818D816044
:1051F000818F448155816681778180859185A285E3
:10520000B385840F951FA61FB71F84839583A6833C
:10521000B78381E008950F931F93CF93DF938C01A1
:105220006DE479E2FC0180810E945E2EEC010E9417
:10523000C93BF80184819581A681B7818C839D83C8
:10524000AE83BF8380859185A285B3858887998742
:10525000AA87BB87892B8A2B8B2B29F4DF91CF91CF
:105260001F910F91089584859585A685B7858C87B4
:105270009D87AE87BF8780899189A289B389888BF2
:10528000998BAA8BBB8B84898E8B1F8ACE01DF9171
:10529000CF911F910F910C941B3CFF920F931F9382
:1052A000CF93DF93EC01F88483E08F15E0F04AE1BF
:1052B00050E06DE479E288810E942F2E8C0180EF0E
:1052C00098E2F8019383828363E375E18C810E9405
:1052D0005E2EF801958B848BF08EDF91CF911F911C
:1052E0000F91FF90089587E20E94803ECF93DF9355
:1052F000EC016B817C818D8140E00E94A21C8D8538
:105300009E850E946E196E817F81888541E00E9492
:10531000441C8D859E850E946E1969857A858B85D2
:1053200041E0DF91CF910C94441C1F93CF93DF9306
:10533000EC01162F8D859E850E946E1969857A85F0
:105340008B8541E00E94441C6E817F81888541E00D
:105350000E94441C8D859E850E946E196B817C8104
:105360008D8140E00E94A21C8D859E850E946E1951
:10537000688179818A8140E00E94A21C612FCE0160
:10538000DF91CF911F910C9496198F929F92AF92BB
:10539000BF92CF92EF920F931F93CF93DF93EC01C5
:1053A000480159011F92EF92BF92AF929F920F93C3
:1053B0007F936F935F934F931F92CF9285E296E016
:1053C0009F938F930E94B7388DB79EB70E960FB6F6
:1053D000F8949EBF0FBE8DBFE11009C08C859D85DE
:1053E000AE85BF8588169906AA06BB0688F48F8904
:1053F0008F5F8F8B9E898917B0F4DF91CF911F91BA
:105400000F91EF90CF90BF90AF909F908F900895A5
:1054100088899989AA89BB8988159905AA05BB0538
:1054200030F31F8AEACF809127028111FACF86E2FA
:105430000E94803E9F92AF92BF92CF92DF92EF92F6
:10544000FF920F931F93CF93DF93EC01C62E942E00
:10545000D52EB22E78016C85862F8160A82EC110C2
:1054600085C06A2DCE010E9495298FEF8B0DBB2040
:1054700009F46EC06701C80ED11C69857A858B85D9
:1054800041E00E94441C08E010E08D859E850E944A
:105490006E196E817F81888541E00E94441C8D8554
:1054A0009E850E946E19110FE985FA8590818B8582
:1054B000892391E009F490E0192B688179818A8130
:1054C00040E00E94A21C015001F769857A858B8516
:1054D00041E00E94441CCE14DF04F1F06B817C811A
:1054E0008D8140E00E94A21C8D859E850E946E19D0
:1054F0006E817F81888541E00E94441C8D859E8558
:105500000E946E19688179818A8140E00E94A21C04
:10551000F70111937F01B1CF69857A858B8541E0D1
:105520000E94441C8D859E850E946E196E817F812C
:10553000888541E00E94441C8D859E850E946E19DD
:10554000688179818A8140E00E94A21CF601108363
:10555000CE01DF91CF911F910F91FF90EF90DF90DF
:10556000CF90BF90AF909F900C947629CE010E946F
:105570009529092D1D2DCA94D12CEFEFCE1ADE0AE4
:10558000C00ED11EF80161918F01CE010E949619C3
:10559000C016D106B9F765CFDF92EF92FF920F9355
:1055A0001F93CF93DF937C01C62FD42E152FFC01C0
:1055B00064850E9495290FEF0C0FCC2371F0CD2D3F
:1055C000D12F10E00F5F1F4F0C0F1D1F6991C701F6
:1055D0000E949619C017D107C9F7C701DF91CF9173
:1055E0001F910F91FF90EF90DF900C947629CF924E
:1055F000DF92EF92FF92CF93DF93FC01A085B185FC
:1056000082858C93968581E089278687C82FC17013
:10561000C688D788E08CF18C97859F5FD1899D17CC
:1056200008F05FC0892F869586958695DF01A80FC3
:10563000B11D5A962C9130E0892F877002C03595A4
:1056400027958A95E2F72170B701A601C217A9F044
:1056500033C0892F869586958695DF01A80FB11DE9
:105660005A962C9130E0892F877002C03595279586
:105670008A95E2F72170C2131FC04C0D5D1D6E1D8F
:105680007F1D9F5F9D1728F38CEE9DE2938382839D
:1056900084819581A681B781480F591F6A1F7B1F9E
:1056A000448355836683778381E0DF91CF91FF90B8
:1056B000EF90DF90CF900895978784819581A681A0
:1056C000B781480F591F6A1F7B1F44835583668328
:1056D000778381E0DF91CF91FF90EF90DF90CF90C3
:1056E0000895B701A601D0CF6F927F928F92CF928B
:1056F000DF92EF92FF92CF93DF93EC0160E08C8119
:105700000E9435243B01882EC884D984EA84FB8416
:10571000D7FC24C0A601415F5F4F64E77BE288812C
:105720000E942F2EFC01608271828282D686C586FD
:105730008C859D859483838388899989AA89BB896F
:1057400081879287A387B487DF91CF91FF90EF90F5
:10575000DF90CF908F907F906F90089584E20E94A9
:10576000803ECF92DF92EF92FF920F931F93CF93E1
:10577000DF93EC01E885F9858A8580830E9487257F
:105780003E8521E023272E872F852F5F2F8721300D
:1057900009F45CC02530E0F40C811D812E813F812D
:1057A0004A895B896C897D89DB01CA01800F911F61
:1057B000A21FB31F8C839D83AE83BF8381E0DF91E3
:1057C000CF911F910F91FF90EF90DF90CF900895B0
:1057D000CC80DD80EE80FF80AB01BC014C195D09FF
:1057E0006E097F098E899F89A88DB98D481B590B39
:1057F0006A0B7B0BDB01CA010296A11DB11DB7FD2F
:1058000034C0B595A79597958795B595A795979524
:1058100087950A891B892C893D89800F911FA21FBA
:10582000B31F8E8B9F8BA88FB98F27EF3AE23B83F4
:105830002A834C0D5D1D6E1D7F1D840F951FA61FB5
:10584000B71F8C839D83AE83BF83B8CF0C811D812E
:105850002E813F81AB01BC01401B510B620B730BCE
:105860004E8B5F8B688F798F9BCFDB01CA010596CA
:10587000A11DB11DC6CFEF92FF920F931F93CF933F
:10588000DF937C016CED7CE2FC0180810E945E2E46
:10589000EC011E8511FF07C0DF91CF911F910F9181
:1058A000FF90EF900895F701048160857185F4847D
:1058B0000B3008F045C0FAE0FF1508F441C0402F56
:1058C00050E04A960E94A13F1F86117312601E8706
:1058D000802F880F880F880F898BFF0CFF0CFF0C1F
:1058E000F88A002349F08A8D8F738A3229F481EB7C
:1058F0009BE29B838A830CC08A899B89AC89BD8982
:105900008E8B9F8BA88FB98F87EF9AE29B838A83B8
:10591000F8940E948725DC01CB018058934FAF4F4C
:10592000BF4F8C839D83AE83BF83CE010E941B3CFF
:105930007894DF91CF911F910F91FF90EF90089590
:1059400082E20E94803E0F931F93CF93DF938C01DE
:105950006CE978E2DC018C910E945E2EEC01D801AA
:105960001496EC918F898E0F8F8BF8948E85E817A3
:10597000D0F48E1BF0E03F96EC0FFD1FDE011F966A
:105980002FEF280F30E0205F3F4F2C0F3D1F9191EC
:105990009D93A217B307D9F78E877894DF91CF91A3
:1059A0001F910F9108951E868EEF888F7894DF9156
:1059B000CF911F910F9108957F928F929F92AF92F6
:1059C000BF92CF92DF92EF92FF920F931F93CF93EC
:1059D000DF93EC0144E250E06CED7CE288810E94B0
:1059E0002F2E8C0178848C809D80AE80BF80CC84EB
:1059F000DD84EE84FF8461E0711001C060E0882DD9
:105A00000E945A1CF80163877487858761E08C2D9A
:105A10000E943524F8016087718782878889998977
:105A2000AA89BB89828B938BA48BB58B711018C00C
:105A300091E08C149D04AE04BF04C1F080E0892B7A
:105A4000F8018687DF91CF911F910F91FF90EF9022
:105A5000DF90CF90BF90AF909F908F907F900895F0
:105A600091E18C149D04AE04BF0441F780E2E7CFBE
:105A7000CF93DF93EC018E8585FD0DC06885798518
:105A80008A8541E00E94931C8E85807381608E8799
:105A9000DF91CF910895688579858A8541E00E94DC
:105AA000A21C8E85807381608E87DF91CF910895CF
:105AB000CF93DF93FC01A385B4855C918785982FF4
:105AC000977021E030E001C0220F9A95EAF7982FF5
:105AD000969596959695DF01A90FB11D5A969C91C2
